:020000040801F1
:1000000000000A2049E602089D1901089F1901080D
:10001000A1190108A3190108A519010899E6020808
:10002000000000000000000000000000A719010807
:10003000A919010800000000AB190108AD19010859
:1000400099E6020899E60208B519010899E602083E
:1000500099E6020899E6020899E6020899E602087C
:1000600099E6020899E6020899E6020899E602086C
:10007000C519010899E6020899E6020899E60208FE
:1000800099E6020899E6020899E6020899E602084C
:1000900099E6020899E6020899E6020899E602083C
:1000A00099E6020899E6020899E6020899E602082C
:1000B00099E6020899E6020899E6020899E602081C
:1000C00099E6020899E6020899E6020899E602080C
:1000D0000000000099E6020899E6020899E6020885
:1000E00099E60208D1190108E1190108F11901087E
:1000F000011A0108111A0108211A010899E60208DB
:1001000099E6020899E6020899E60208311A010800
:10011000411A010899E6020899E60208511A0108F5
:1001200099E6020899E60208611A0108711A0108A5
:10013000811A010899E6020899E6020899E6020880
:10014000911A010899E6020899E6020899E6020860
:1001500099E6020899E6020899E6020899E602087B
:1001600099E6020899E60208D51B020899E60208FA
:1001700099E6020899E6020899E6020899E602085B
:1001800099E6020899E6020899E6020899E602084B
:1001900099E6020899E6020899E6020899E602083B
:1001A00099E6020899E6020899E6020899E602082B
:1001B00099E6020899E6020899E6020899E602081B
:1001C00099E6020899E6020899E6020899E602080B
:1001D00099E6020899E6020899E6020899E60208FB
:1001E00099E6020899E6020899E6020899E60208EB
:1001F00099E6020899E6020899E6020899E60208DB
:1002000099E6020899E6020899E602080000000053
:100210000000000099E602080000000099E60208CC
:1002200099E6020899E6020899E6020899E60208AA
:1002300099E6020899E6020899E6020899E602089A
:0C02400099E6020899E6020899E6020817
:1002500010B5054C237833B9044B13B10448AFF300
:1002600000800123237010BD500500200000000015
:100270008440030808B5034B1BB103490348AFF39F
:10028000008008BD000000005405002084400308E1
:1002900010F8012B11F8013B012A28BF9A42F7D030
:1002A000D01A7047034613F8012B002AFBD1181A05
:1002B0000138704781F0004102E000BF83F0004345
:1002C00030B54FEA41044FEA430594EA050F08BFF1
:1002D00090EA020F1FBF54EA000C55EA020C7FEAB5
:1002E000645C7FEA655C00F0E2804FEA5454D4EB32
:1002F0005555B8BF6D420CDD2C4480EA020281EAFC
:10030000030382EA000083EA010180EA020281EA33
:100310000303362D88BF30BD11F0004F4FEA013185
:100320004FF4801C4CEA113102D0404261EB410194
:1003300013F0004F4FEA03334CEA133302D052421A
:1003400063EB430394EA050F00F0A780A4F10104D6
:10035000D5F1200E0DDB02FA0EFC22FA05F2801810
:1003600041F1000103FA0EF2801843FA05F35941F6
:100370000EE0A5F120050EF1200E012A03FA0EFC75
:1003800028BF4CF0020C43FA05F3C01851EBE3719F
:1003900001F0004507D54FF0000EDCF1000C7EEBBC
:1003A00000006EEB0101B1F5801F1BD3B1F5001FFA
:1003B0000CD349085FEA30004FEA3C0C04F1010419
:1003C0004FEA445212F5800F80F09A80BCF1004F42
:1003D00008BF5FEA500C50F1000041EB045141EAC4
:1003E000050130BD5FEA4C0C404141EB0101013C8D
:1003F00028BFB1F5801FE9D291F0000F04BF01467C
:100400000020B1FA81F308BF2033A3F10B03B3F14D
:1004100020020CDA0C3208DD02F1140CC2F10C02DD
:1004200001FA0CF021FA02F10CE002F11402D8BF3B
:10043000C2F1200C01FA02F120FA0CFCDCBF41EA07
:100440000C019040E41AA2BF01EB0451294330BDD6
:100450006FEA04041F3C1CDA0C340EDC04F11404B3
:10046000C4F1200220FA04F001FA02F340EA03008A
:1004700021FA04F345EA030130BDC4F10C04C4F1D0
:10048000200220FA02F001FA04F340EA03002946B0
:1004900030BD21FA04F0294630BD94F0000F83F4FA
:1004A000801306BF81F480110134013D4EE77FEADD
:1004B000645C18BF7FEA655C29D094EA050F08BF29
:1004C00090EA020F05D054EA000C04BF194610460A
:1004D00030BD91EA030F1EBF0021002030BD5FEA4E
:1004E000545C05D14000494128BF41F0004130BD76
:1004F00014F580043CBF01F5801130BD01F00045CA
:1005000045F0FE4141F470014FF0000030BD7FEA3C
:10051000645C1ABF194610467FEA655C1CBF0B4637
:10052000024650EA013406BF52EA033591EA030F4E
:1005300041F4002130BD00BF90F0000F04BF002146
:10054000704730B54FF4806404F132044FF0000579
:100550004FF0000150E700BF90F0000F04BF0021F2
:10056000704730B54FF4806404F1320410F0004558
:1005700048BF40424FF000013EE700BF42004FEA53
:10058000E2014FEA31014FEA02701FBF12F07F43D0
:1005900093F07F4F81F06051704732F07F4208BF87
:1005A000704793F07F4F04BF41F40021704730B58E
:1005B0004FF4607401F0004521F000411CE700BFDA
:1005C00050EA010208BF704730B54FF000050AE05D
:1005D00050EA010208BF704730B511F0004502D55E
:1005E000404261EB41014FF4806404F132045FEA60
:1005F000915C3FF4D8AE4FF003025FEADC0C18BF09
:1006000003325FEADC0C18BF033202EBDC02C2F1FA
:10061000200300FA03FC20FA02F001FA03FE40EA8C
:100620000E0021FA02F11444BDE600BF70B54FF090
:10063000FF0C4CF4E06C1CEA11541DBF1CEA13556E
:1006400094EA0C0F95EA0C0F00F0DEF82C4481EAD6
:10065000030621EA4C5123EA4C5350EA013518BFF6
:1006600052EA033541F4801143F4801338D0A0FBE3
:1006700002CE4FF00005E1FB02E506F00042E0FB90
:1006800003E54FF00006E1FB03569CF0000F18BF96
:100690004EF0010EA4F1FF04B6F5007F64F540743E
:1006A00004D25FEA4E0E6D4146EB060642EAC621D1
:1006B00041EA55514FEAC52040EA5E504FEACE2E3E
:1006C000B4F1FD0C88BFBCF5E06F1ED8BEF1004F41
:1006D00008BF5FEA500E50F1000041EB045170BDBD
:1006E00006F0004646EA010140EA020081EA030101
:1006F000B4EB5C04C2BFD4EB0C0541EA045170BDFD
:1007000041F480114FF0000E013C00F3AB8014F176
:10071000360FDEBF002001F0004170BDC4F10004BF
:10072000203C35DA0C341BDC04F11404C4F1200540
:1007300000FA05F320FA04F001FA05F240EA02009B
:1007400001F0004221F0004110EBD37021FA04F6D1
:1007500042EB06015EEA430E08BF20EAD37070BD8B
:10076000C4F10C04C4F1200500FA04F320FA05F0EA
:1007700001FA04F240EA020001F0004110EBD370EC
:1007800041F100015EEA430E08BF20EAD37070BD5C
:10079000C4F1200500FA05F24EEA020E20FA04F335
:1007A00001FA05F243EA020321FA04F001F00041E4
:1007B00021FA04F220EA020000EBD3705EEA430E55
:1007C00008BF20EAD37070BD94F0000F0FD101F084
:1007D0000046400041EB010111F4801F08BF013CBD
:1007E000F7D041EA060195F0000F18BF704703F0FB
:1007F0000046520043EB030313F4801F08BF013D82
:10080000F7D043EA0603704794EA0C0F0CEA13553D
:1008100018BF95EA0C0F0CD050EA410618BF52EAF7
:100820004306D1D181EA030101F000414FF00000FD
:1008300070BD50EA410606BF1046194652EA43060B
:1008400019D094EA0C0F02D150EA013613D195EA7F
:100850000C0F05D152EA03361CBF104619460AD1C7
:1008600081EA030101F0004141F0FE4141F47001D1
:100870004FF0000070BD41F0FE4141F4780170BDC1
:1008800070B54FF0FF0C4CF4E06C1CEA11541DBF26
:100890001CEA135594EA0C0F95EA0C0F00F0A7F828
:1008A000A4EB050481EA030E52EA03354FEA013155
:1008B00000F088804FEA03334FF0805545EA131368
:1008C00043EA12634FEA022245EA111545EA106530
:1008D0004FEA00260EF000419D4208BF964244F1C7
:1008E000FD0404F5407402D25B084FEA3202B61AE6
:1008F00065EB03055B084FEA32024FF480104FF4BA
:10090000002CB6EB020E75EB030E22BFB61A75462D
:1009100040EA0C005B084FEA3202B6EB020E75EBC0
:10092000030E22BFB61A754640EA5C005B084FEA28
:100930003202B6EB020E75EB030E22BFB61A7546F5
:1009400040EA9C005B084FEA3202B6EB020E75EB00
:10095000030E22BFB61A754640EADC0055EA060EC1
:1009600018D04FEA051545EA16754FEA06164FEA04
:10097000C30343EA52734FEAC2025FEA1C1CC0D1B0
:1009800011F4801F0BD141EA00014FF000004FF03D
:10099000004CB6E711F4801F04BF01430020B4F1FE
:1009A000FD0C88BFBCF5E06F3FF6AFAEB5EB030CB6
:1009B00004BFB6EB020C5FEA500C50F1000041EBB3
:1009C000045170BD0EF0004E4EEA113114EB5C0480
:1009D000C2BFD4EB0C0541EA045170BD41F4801153
:1009E0004FF0000E013C90E645EA060E8DE60CEA5B
:1009F000135594EA0C0F08BF95EA0C0F3FF43BAF78
:100A000094EA0C0F0AD150EA01347FF434AF95EA2E
:100A10000C0F7FF425AF104619462CE795EA0C0F12
:100A200006D152EA03353FF4FDAE1046194622E7DF
:100A300050EA410618BF52EA43067FF4C5AE50EAB9
:100A400041047FF40DAF52EA43057FF4EBAE12E7A9
:100A50004FF0FF3C06E000BF4FF0010C02E000BF8A
:100A60004FF0010C4DF804CD4FEA410C7FEA6C5C6D
:100A70004FEA430C18BF7FEA6C5C1BD001B050EA10
:100A8000410C0CBF52EA430C91EA030F02BF90EAFB
:100A9000020F0020704710F1000F91EA030F58BFBA
:100AA000994208BF90422CBFD8176FEAE37040F01C
:100AB000010070474FEA410C7FEA6C5C02D150EABA
:100AC000013C07D14FEA430C7FEA6C5CD6D152EA75
:100AD000033CD3D05DF8040B704700BF844610463A
:100AE00062468C461946634600E000BF01B5FFF739
:100AF000B7FF002848BF10F1000F01BD4DF808ED09
:100B0000FFF7F4FF0CBF012000205DF808FB00BFD9
:100B10004DF808EDFFF7EAFF34BF012000205DF833
:100B200008FB00BF4DF808EDFFF7E0FF94BF012080
:100B300000205DF808FB00BF4DF808EDFFF7CEFF81
:100B400094BF012000205DF808FB00BF4DF808EDC0
:100B5000FFF7C4FF34BF012000205DF808FB00BF91
:100B60004FEA410C7FEA6C5C02D150EA013C0AD1A9
:100B70004FEA430C7FEA6C5C02D152EA033C02D19B
:100B80004FF0000070474FF0010070474FEA4102FC
:100B900012F5001215D211D56FF47873B3EB6252CF
:100BA00012D94FEAC12343F0004343EA505311F0F6
:100BB000004F23FA02F018BF404270474FF0000088
:100BC000704750EA013005D111F0004008BF6FF0C6
:100BD000004070474FF00000704700BF4A0011D23C
:100BE00012F5001211D20DD56FF47873B3EB625287
:100BF0000ED44FEAC12343F0004343EA505323FA93
:100C000002F070474FF00000704750EA013002D107
:100C10004FF0FF3070474FF0000070474FEA41023D
:100C2000B2F1E04324BFB3F5001CDCF1FE5C0DD94A
:100C300001F0004C4FEAC0024CEA5070B2F1004F94
:100C400040EB830008BF20F00100704711F0804F97
:100C500021D113F13872BCBF01F00040704741F45C
:100C600080114FEA5252C2F11802C2F1200C10FA60
:100C70000CF320FA02F018BF40F001004FEAC12344
:100C80004FEAD32303FA0CFC40EA0C0023FA02F3E8
:100C90004FEA4303CCE77FEA625307D150EA0133BE
:100CA0001EBF4FF0FE4040F44000704701F000408E
:100CB00040F0FE4040F40000704700BF53B94AB90D
:100CC000002908BF00281CBF4FF0FF314FF0FF3054
:100CD00000F0FAB9ADF1080C6DE904CE00F050F85F
:100CE000DDF804E0DDE9022304B07047430803F0B7
:100CF0005533C01A830800F0333003F033331844FF
:100D000000EB101000F00F3000EB002000EB004073
:100D1000000E704738B50022002304460D46FFF749
:100D2000F7FE28B920462946BDE8384000F00AB849
:100D3000204605F1004100F005F8404261EB410119
:100D400038BD00BFD0B500220B4B06460F46FFF75B
:100D50006DFCFFF743FF0446FFF7EEFB0022074B55
:100D6000FFF764FC02460B4630463946FFF7A6FA09
:100D7000FFF734FF2146D0BD0000F03D0000F041F8
:100D80002DE9F04F099D884604468E46002B4AD136
:100D90008A4217465FD9B2FA82F64EB1C6F12003F5
:100DA00001FA06FEB740B44020FA03F343EA0E0E00
:100DB0004FEA17481FFA87FC230CBEFBF8F108FB2B
:100DC00011EE01FB0CF243EA0E439A4207D9FB18DD
:100DD00001F1FF3002D29A4200F2548101469B1A7F
:100DE000A2B2B3FBF8F008FB103300FB0CFC42EAA4
:100DF000034294450BD9BA1800F1FF332CBF0124EC
:100E00000024944502D9002C00F03F81184640EAA6
:100E10000140A2EB0C0200211DB1F2400023C5E904
:100E20000023BDE8F08F8B4205D90DB1C5E9000163
:100E300000210846F5E7B3FA83F100294ED1434576
:100E4000C0F01281824240F20F810846002DE8D0A6
:100E5000C5E9004EE5E7002A00F0AC80B2FA82F660
:100E6000002E40F0BB808B1A4FEA124EBCB201211B
:100E7000020C80B2B3FBFEFC0EFB1C3342EA0343C0
:100E800004FB0CF29A420ED9FB180CF1FF382CBF70
:100E90004FF001094FF000099A4203D9B9F1000F50
:100EA00000F0EC80C4469B1AB3FBFEF80EFB18332F
:100EB00004FB08F440EA034294420BD9BA1808F143
:100EC000FF332CBF01200020944202D9002800F0FB
:100ED000D1809846121B48EA0C409DE7C1F12006DC
:100EE0008B4008FA01F400FA01F922FA06F728FA11
:100EF00006F88A401F4320FA06F3380C23431FFAF2
:100F000087FC1C0CB8FBF0FE00FB1E8844EA08447A
:100F10000EFB0CF8A0450ED93C190EF1FF3A2CBF80
:100F20004FF0010B4FF0000BA04503D9BBF1000FB0
:100F300000F0B880D646A4EB08041FFA83F8B4FB8F
:100F4000F0F300FB134403FB0CFC48EA0444A44503
:100F50000ED93C1903F1FF302CBF4FF001084FF0C0
:100F60000008A44503D9B8F1000F00F09F800346A4
:100F700043EA0E40A4EB0C04A0FB02EC644573466C
:100F8000E04602D307D1F14505D2BEEB02036CEB7C
:100F9000070C0138E0465DB1B9EB030264EB0804CD
:100FA00004FA06F622FA01F3CC401E43C5E90064B8
:100FB000002136E7B1FBF2FC010C144680B29646E4
:100FC00041EA08412026904640EA01431046B1FB21
:100FD000F2F1A3EB080341EA0C414BE7B740C6F13D
:100FE000200301FA06F221FA03F84FEA174E20FA1D
:100FF00003F3BCB2B0401343020C190C80B2B8FB2F
:10100000FEF90EFB198841EA084109FB04F88845FE
:1010100051D9791809F1FF3C2CBF4FF0010A4FF06C
:10102000000A884502D9BAF1000F31D0A1EB0801BE
:10103000B1FBFEF909FB04F80EFB19119BB243EA60
:101040000143434535D2FB1809F1FF312CBF4FF066
:10105000010A4FF0000A4345BBD2BAF1000FB8D1E4
:10106000A9F102013B44B4E7841A68EB03020120B2
:101070009646EBE63A44A8F102082BE7ACF1020CE5
:101080003B4410E702393B44A9E63A440238BEE645
:10109000A7EB0808A9F1020C4144B1FBFEF909FBDA
:1010A00004F8C9E7AEF1020E3C4444E7023B3C447D
:1010B0005EE749468DE7A1EB0801CC46B1FBFEF99E
:1010C00009FB04F8B8E700BF704700BF72B6FEE73F
:1010D00000B59DB05022002108A81FF059F9002347
:1010E000029303930493059306930793254B1A6980
:1010F00042F030021A611B6903F030030193019B37
:10110000204B5B6913F0080FFAD0382308934FF097
:1011100080630E934FF4805311934FF480730F93B9
:1011200020231093022312931393012214927D2201
:1011300015921693179318930823199300231A9363
:101140001B9308A801F03CF8B8B91F2302930323AE
:10115000039300230493059306930793052102A8A4
:1011600000F0CCFE58B9084A136823F0300343F06E
:10117000200313601DB05DF804FBFFF7A7FFFFF726
:10118000A5FF00BF000802440020024000B5C3B024
:101190004FF48472002168461FF0FAF84FF0807215
:1011A0000023CDE90023684601F062FC10B943B08A
:1011B0005DF804FBFFF78AFF38B562B605F0DCF98D
:1011C000FFF786FFFFF7E2FF00F030F800F0E0F8ED
:1011D00000F00AF900F092F900F016FA00F04CFA6B
:1011E00000F07EFA00F086FB08F0C0FF08F0C0FFB8
:1011F00009F00CF809F0B0F809F01EF90AF020F92E
:1012000009F0E4F8084809F05DFD10F001FD0FF069
:1012100015FB0024254605F0DFF90446401BFAD0F3
:101220000FF086FBF6E700BF780B00202DE9F043B6
:101230008BB00024059406940794089409944E4BAF
:10124000D3F88C2042F00402C3F88C20D3F88C2011
:1012500002F004020092009AD3F88C2042F080023F
:10126000C3F88C20D3F88C2002F080020192019AFE
:10127000D3F88C2042F00102C3F88C20D3F88C20E4
:1012800002F001020292029AD3F88C2042F002028C
:10129000C3F88C20D3F88C2002F002020392039A48
:1012A000D3F88C2042F00802C3F88C20D3F88C309D
:1012B00003F008030493049B304F22464EF2500182
:1012C000384605F040F82E4E22461021304605F0F3
:1012D0003AF8DFF8B49022464FF48051484605F0C2
:1012E00032F8DFF8A88022463821404605F02BF876
:1012F0004EF250030593012506950794089405A91D
:10130000384604F063FF022305931E4B06930794AF
:1013100005A9384604F05AFF102305930695079453
:10132000089405A9304604F051FF4FF4805305930B
:1013300006950794089405A9484604F047FF4FF422
:10134000807305930694079505A9304604F03EFF87
:101350003823059306950794089405A9404604F0A0
:1013600035FF224621460C2000F002FC0C2000F044
:101370000FFC0BB0BDE8F083000C024400080242F1
:101380000000024200003110000C02420004024240
:1013900008B50648064B03600023436000F08CFC50
:1013A00000B908BDFFF792FEFBE700BF6C05002007
:1013B0000014034002680A4B9A4200D0704782B082
:1013C000084BD3F8882042F08042C3F88820D3F835
:1013D000883003F080430193019B02B0704700BF47
:1013E00000140340000C024408B51248124B03607D
:1013F000124B4360002383600122C260036143619A
:101400008361C361036205F06BFB50B90021094899
:1014100006F016FB40B90021064806F03FFB30B944
:1014200008BDFFF753FEF1E7FFF750FEF3E7FFF7C4
:101430004DFEF5E79805002000540040835970A048
:1014400030B5CBB004460021459146914791489173
:1014500049914FF4847202A81EF09AFF2268244B2F
:101460009A4201D04BB030BD4FF400520023CDE979
:10147000022302A801F0FCFA002836D11D4DD5F850
:101480008C3043F00203C5F88C30D5F88C3003F073
:1014900002030093009BC02345931223469300242C
:1014A000479448940423499345A9134804F08EFEB9
:1014B000D5F89C3043F40013C5F89C30D5F89C3027
:1014C00003F400130193019B22462146332000F0D0
:1014D0004FFB332000F05CFB22462146342000F015
:1014E00047FB342000F054FBBCE7FFF7EFFDC5E7F6
:1014F00000540040000C02440004024208B51448A5
:10150000144B03604FF48003436000238360072281
:10151000C260036143614FF0806181614FF04051CF
:10152000C161036243628362C2624FF080424263E0
:101530008363C3638364C364036543658365C36571
:10154000036606F067FB00B908BDFFF7BFFDFBE7C8
:10155000EC0500200030014010B5CAB0044600215F
:10156000459146914791489149914FF4847202A860
:101570001EF00EFF2268214B9A4201D04AB010BDE6
:101580004FF000620023CDE9022304233A9302A81E
:1015900001F06EFA70BB1A4BD3F8A42042F48052CB
:1015A000C3F8A420D3F8A42002F480520092009A39
:1015B000D3F88C2042F00102C3F88C20D3F88C3091
:1015C00003F001030193019BE0234593022346931B
:1015D0000024479448940523499345A9094804F0F9
:1015E000F5FD22462146372000F0C2FA372000F0F0
:1015F000CFFAC3E7FFF76AFDCDE700BF0030014037
:10160000000C02440000024208B51948194B03605F
:101610004FF4E133436000238360C36003610C2215
:1016200042618361C36103624362082383624FF4B2
:101630000043836308F072FA70B900210C4808F087
:10164000B9FB60B900210A4808F0D9FB50B9084835
:1016500008F091FB48B908BDFFF738FDEDE7FFF74B
:1016600035FDEFE7FFF732FDF1E7FFF72FFDF2E77A
:10167000A40700200038014008B51748174B036045
:101680004FF41653436000238360C36003610C2250
:1016900042618361C36103624362836208F03EFA80
:1016A00070B900210C4808F085FB60B900210A4898
:1016B00008F0A5FB50B9084808F05DFB48B908BD23
:1016C000FFF704FDEDE7FFF701FDEFE7FFF7FEFC95
:1016D000F1E7FFF7FBFCF2E71007002000440040B1
:1016E00008B51748174B03604FF4E13343600023FC
:1016F0008360C36003610C2242618361C361036242
:101700004362836208F00AFA70B900210C4808F0BD
:1017100051FB60B900210A4808F071FB50B9084834
:1017200008F029FB48B908BDFFF7D0FCEDE7FFF74B
:10173000CDFCEFE7FFF7CAFCF1E7FFF7C7FCF2E7E4
:101740007C0600200048004030B5CFB004460021A0
:1017500049914A914B914C914D914FF4847206A856
:101760001EF016FE23685D4A934207D05C4A9342FE
:101770003FD05C4A934276D04FB030BD0122002367
:10178000CDE9062306A801F073F978BB564BD3F8D0
:10179000A42042F48042C3F8A420D3F8A42002F489
:1017A00080420092009AD3F88C2042F00202C3F8E3
:1017B0008C20D3F88C3003F002030193019B4FF48B
:1017C0004043499302244A9400254B954C940423AA
:1017D0004D9349A9454804F0F9FC2A4621463A2090
:1017E00000F0C6F93A2000F0D3F9C5E7FFF76EFC28
:1017F000CCE702220023CDE9062306A801F038F940
:1018000070BB394BD3F89C2042F40032C3F89C20C3
:10181000D3F89C2002F400320292029AD3F88C2072
:1018200042F00102C3F88C20D3F88C3003F001039E
:101830000393039B0C23499302234A9300244B9464
:101840004C9407234D9349A9294804F0BFFC224634
:1018500003213B2000F08CF93B2000F099F98BE745
:10186000FFF734FCCDE704220023CDE9062306A8C8
:1018700001F0FEF878BB1C4BD3F89C2042F4802288
:10188000C3F89C20D3F89C2002F480220492049A8E
:10189000D3F88C2042F00202C3F88C20D3F88C30AD
:1018A00003F002030593059B4FF440634993022321
:1018B0004A9300244B944C9407234D9349A90B4819
:1018C00004F084FC224621463C2000F051F93C20E3
:1018D00000F05EF950E7FFF7F9FBCCE70038014074
:1018E0000044004000480040000C02440004024252
:1018F0000000024208B50B480B4B0360082303713C
:101900000223C371437200238372C3720373437350
:101910008373C373037408F097FA00B908BDFFF727
:10192000D5FBFBE7380800200060014010B5C4B0CB
:1019300004464FF48472002102A81EF029FD22689B
:10194000144B9A4201D044B010BD00221023CDE9BF
:1019500002233023429302A801F08AF8B8B904F0B8
:10196000ADFD0D4BD3F8A42042F08072C3F8A42043
:10197000D3F8A43003F080730193019B002204216B
:101980004A2000F0F5F84A2000F002F9DBE7FFF703
:101990009DFBE4E700600140000C0244FEE7FEE727
:1019A000FEE7FEE7FEE770477047704708B504F0B2
:1019B00007FE08BD08B5024809F09EF908BD00BF42
:1019C000780B002008B5022004F0CCFC08BD000014
:1019D00008B5024809F0F6F908BD00BF400C002028
:1019E00008B5024809F0EEF908BD00BF400C002020
:1019F00008B5024809F0E6F908BD00BF400C002018
:101A000008B5024809F0DEF908BD00BF400C00200F
:101A100008B5024809F0D6F908BD00BFF40B002054
:101A200008B5024809F0CEF908BD00BFA80B002098
:101A300008B5024805F095FC08BD00BF98050020D8
:101A400008B5024805F0BAFF08BD00BF98050020A0
:101A500008B5024806F08CFF08BD00BFEC05002069
:101A600008B5024807F06AF908BD00BFA4070020C6
:101A700008B5024807F062F908BD00BF1007002052
:101A800008B5024807F05AF908BD00BF7C060020DF
:101A900008B5024808F02DFE08BD00BF280B002045
:101AA00070470000002807DB00F01F0240090123F7
:101AB0009340024A42F82030704700BF00E100E046
:101AC00000280CDB00F01F02400901239340203066
:101AD000034A42F82030BFF34F8FBFF36F8F704738
:101AE00000E100E0002808DB0901C9B200F1604014
:101AF00000F5614080F80013704700F00F00090105
:101B0000C9B2014B1954704714ED00E000B500F064
:101B10000700C0F1070CBCF1040F28BF4FF0040C04
:101B2000031D062B0FD9C31E4FF0FF3E0EFA0CF01B
:101B300021EA000199400EFA03FE22EA0E0241EA70
:101B400002005DF804FB0023EEE70000074AD368BB
:101B500023F4E0631B041B0C000200F4E060034369
:101B600043F0BF6343F40033D360704700ED00E0FF
:101B700010B50446054BD868C0F30220FFF7C6FF36
:101B800001462046FFF7AEFF10BD00BF00ED00E0AC
:101B900008B5FFF787FF08BD08B5FFF791FF08BD3F
:101BA000002808DB00F01F02400901239340603049
:101BB000014A42F82030704700E100E00138B0F1FE
:101BC000807F09D24FF0E0235861002098611A69A4
:101BD00042F003021A61704701207047042838D888
:101BE000DFE800F00A18283703004FF0E0221369FD
:101BF00043F00403136170474FF0E022136923F0B0
:101C000004031361134AD2F8E43023F00C03C2F842
:101C1000E43070474FF0E022136923F004031361AE
:101C20000C4AD2F8E43023F00C0343F00403C2F86A
:101C3000E43070474FF0E022136923F0040313618E
:101C4000044AD2F8E43023F00C0343F00803C2F84E
:101C5000E4307047000C02444FF0E023186910F0A4
:101C600004000AD1074BD3F8E43003F00C03042B33
:101C700005D0082B04D102207047042070470120B2
:101C8000704700BF000C02447047704770477047B0
:101C90007047024658B10368596811F0090F08D11E
:101CA000002090621A6842F001021A607047012019
:101CB000704702207047000030B310B5044690F81A
:101CC000243073B9114B8360114BC360114B036116
:101CD000114B4361114B8361C36993B1E3692046A2
:101CE00098470023A362012384F8243022681368F4
:101CF00023F0004361680B4313602046FFF7C9FFE0
:101D000010BD074BC361E9E701207047911C010832
:101D1000891C01088B1C01088F1C01088D1C0108FF
:101D2000B51301086D4BDB6903F01803082B00F0B5
:101D3000CE806A4BDB6913F0180F0CD1674B1B6820
:101D400013F0200F00F0C580644B1B68C3F3C10380
:101D50006348D8407047614BDB6903F01803102BD0
:101D600000F0B9805D4BDB6903F01803182B01D03C
:101D70005B48704710B4594B996A01F003019C6AA3
:101D8000C4F305209A6AC2F300129B6BC3F3CC0321
:101D900002FB03F307EE903AF8EE677A14F47C5FE7
:101DA00000F0928001291ED0032962D007EE100AAC
:101DB000F8EE476A9FED4B6A86EE267A474B5B6BDF
:101DC000C3F3080306EE903AF8EE666A9FED466AA2
:101DD00067EE867A76EEA77AF7EE006A77EEA67A55
:101DE00027EE277A61E03D4B1B6813F0200F23D0CC
:101DF0003A490A68C2F3C102394BD34007EE103AA0
:101E0000F8EE476A07EE100AB8EE476A86EE867A61
:101E10004B6BC3F3080306EE903AF8EE666A9FED4B
:101E2000326A67EE867A76EEA77AF7EE006A77EE88
:101E3000A67A27EE277A38E007EE100AF8EE476A0E
:101E40009FED2A6A86EE267A244B5B6BC3F3080368
:101E500006EE903AF8EE666A9FED236A67EE867AA0
:101E600076EEA77AF7EE006A77EEA67A27EE277A63
:101E70001BE007EE100AF8EE476A9FED1D6A86EE3A
:101E8000267A164B5B6BC3F3080306EE903AF8EE26
:101E9000666A9FED156A67EE867A76EEA77AF7EEA8
:101EA000006A77EEA67A27EE277A0C4B5B6BC3F3BA
:101EB0004623013307EE903AF8EE677AC7EE276AB9
:101EC000FCEEE67A17EE900A5DF8044B704709487D
:101ED0007047034870470848704700BF000C024431
:101EE0000090D0030024744A000000390024744C90
:101EF0000024F44A00093D0000127A00002800F096
:101F0000378170B50D4604469D4B1B6803F00F03E7
:101F10008B420BD29A4A136823F00F030B431360D2
:101F2000136803F00F038B4240F02481236813F001
:101F3000100F0ED06269934B1B6A1B0A03F07003EB
:101F40009A4206D98F490B6A23F4E04343EA0223FD
:101F50000B62236813F0080F0ED02269894B1B6AAD
:101F60001B0903F070039A4206D986490B6A23F4D1
:101F7000E06343EA02130B62236813F0040F0CD0F2
:101F8000E268804B1B6A03F070039A4205D97D49D1
:101F90000B6A23F070031A430A62236813F0020FDE
:101FA0000CD0A268774B1B6A03F00F039A4205D945
:101FB00074490B6A23F00F031A430A62236813F073
:101FC000010F6CD06368032B0AD0022B2CD0012B9D
:101FD00031D06C4A126812F0020F07D10120C6E01E
:101FE000684A126812F0007F00F0C6806549CA692D
:101FF00022F003021343CB6104F0EEFA0646636855
:10200000032B1FD0022B2CD0012B39D05D4BDB6969
:1020100013F0180F43D004F0DFFA801B41F288332D
:102020009842F3D90320A2E0564A126812F4003F06
:10203000DCD101209BE0534A126812F4007FD5D115
:10204000012094E04F4BDB6903F01803182B26D0D6
:1020500004F0C2FA831B41F288329342F2D9032082
:1020600085E0484BDB6903F01803102B17D004F010
:10207000B3FA801B41F288339842F2D9032076E00C
:10208000404BDB6903F01803082B08D004F0A4FAD6
:10209000801B41F288339842F2D9032067E023681D
:1020A00013F0020F0CD0A268364B1B6A03F00F032B
:1020B0009A4205D233490B6A23F00F031A430A628E
:1020C0002F4B1B6803F00F03AB420AD92C4A13684D
:1020D00023F00F032B431360136803F00F03AB428D
:1020E0004CD1236813F0040F0CD0E268254B1B6A17
:1020F00003F070039A4205D222490B6A23F0700361
:102100001A430A62236813F0080F0ED022691D4B90
:102110001B6A1B0903F070039A4206D219490B6A25
:1021200023F4E06343EA02130B62236813F0100FF9
:102130000ED06269134B1B6A1B0A03F070039A42AC
:1021400006D210490B6A23F4E04343EA02230B62F0
:10215000FFF7E8FD0B4B1B6A03F00F030A4AD35C41
:10216000D8400A4B18600A4B186804F0AFF970BDEC
:10217000012070470120FAE70120F8E70120F6E787
:1021800000200240000C0244084103082400002003
:102190002000002008B5FFF7C5FD064B1B6A03F0C1
:1021A0000F03054AD35C03F01F03D840034B1860AC
:1021B00008BD00BF000C02440841030824000020B1
:1021C000002800F02883F8B50446A24BDD6905F02D
:1021D00018059E6A06F00306036813F0100F28D056
:1021E000082D1AD0182D16D0E369002B46D0994A35
:1021F000136843F48073136004F0EEF90746954BBF
:102200001B6813F4007F30D104F0E6F9C01B0228EC
:10221000F5D9032008E3022EE6D1E369002B00F094
:10222000FC828C4A936923F47C13216A43EA0143BC
:102230009361236813F0010F3AD0102D34D0182D7C
:1022400030D06368B3F5803F5AD0002B6FD1814BFB
:102250001A6822F480321A601A6822F480121A6016
:102260001A6822F480221A604FE07A4A936923F4B4
:102270007C13216A43EA01439361DAE7754A1368E4
:1022800023F48073136004F0A7F90746714B1B68B1
:1022900013F4007FCDD004F09FF9C01B0228F5D9BC
:1022A0000320C1E2032ECCD16368002B00F0B7827B
:1022B000236813F0020F00F0AE80002D78D0182DA7
:1022C00074D0E368002B00F0D280624A136823F0D8
:1022D000180321690B431360136843F00103136073
:1022E00004F07AF906465B4B1B6813F0020F40F0CE
:1022F000B58004F071F9801B0228F4D9032093E221
:10230000544A136843F4803313606368002B3ED053
:1023100004F062F907464F4B1B6813F4003FC7D126
:1023200004F05AF9C01B6428F5D903207CE2B3F508
:10233000A02F10D0B3F5A81F1BD0464B1A6822F46B
:1023400080321A601A6822F480221A601A6822F415
:1023500080121A60D9E73F4B1A6842F480221A6053
:102360001A6822F480121A601A6842F480321A60E5
:10237000CBE7384B1A6842F480221A601A6842F49C
:1023800080121A601A6842F480321A60BDE704F0C5
:1023900023F907462F4B1B6813F4003F88D004F045
:1023A0001BF9C01B6428F5D903203DE2012E88D11A
:1023B000E368002B00F0358235B9264B1B6803F02B
:1023C0001803226993420ED104F006F90646214B08
:1023D0001B6813F0020F16D104F0FEF8801B0228D0
:1023E000F5D9032020E21B490B6823F018031A4398
:1023F0000A60FFF7CFFE184B186804F067F8002852
:10240000E2D0012010E2134A136923F4FE0361694C
:1024100043EA01431361236813F0080F52D0A36904
:10242000002B38D00B4AD2F8F03043F08063C2F86A
:10243000F03004F0D1F80646064BD3F8F03013F034
:10244000006F3FD104F0C8F8801B0228F4D90320A4
:10245000EAE100BF000C0244200000209B4A1369FF
:1024600023F4FE03616943EA01431361D3E7974A0A
:10247000136823F00103136004F0AEF80646934B93
:102480001B6813F0020FC6D004F0A6F8801B0228C8
:10249000F5D90320C8E18D4AD2F8F03023F08063EB
:1024A000C2F8F03004F098F80646884BD3F8F030C4
:1024B00013F0006F06D004F08FF8801B0228F4D9C7
:1024C0000320B1E1236813F0040F00F0A080804BDB
:1024D0005B6A13F0010F18D0A368012B29D0002BE1
:1024E00043D17A4BD3F8F02022F00102C3F8F02058
:1024F000D3F8F02022F08002C3F8F020D3F8F020C7
:1025000022F00402C3F8F0201AE0714A536A43F043
:102510000103536204F060F806466D4B5B6A13F0EA
:10252000010FD9D104F058F8801B0228F5D90320F7
:102530007AE1664AD2F8F03043F00103C2F8F03095
:10254000A368002B51D004F047F806465F4BD3F840
:10255000F03013F0020F5AD104F03EF8801B41F224
:1025600088339842F2D903205EE1052B15D0852BE4
:1025700027D0564BD3F8F02022F00102C3F8F02008
:10258000D3F8F02022F00402C3F8F020D3F8F020B2
:1025900022F08002C3F8F020D2E74C4BD3F8F020B1
:1025A00042F00402C3F8F020D3F8F02022F08002B9
:1025B000C3F8F020D3F8F02042F00102C3F8F02075
:1025C000BEE7424BD3F8F02042F00402C3F8F020FB
:1025D000D3F8F02042F08002C3F8F020D3F8F020C6
:1025E00042F00102C3F8F020AAE703F0F5FF064627
:1025F000364BD3F8F03013F0020F08D003F0ECFFA5
:10260000801B41F288339842F2D903200CE1236801
:1026100013F0200F29D0636A9BB12C4A136843F44E
:102620008053136003F0D8FF0646284B1B6813F451
:10263000005F1AD103F0D0FF801B0228F5D90320D8
:10264000F2E0224A136823F48053136003F0C4FFBE
:1026500006461E4B1B6813F4005F06D003F0BCFF58
:10266000801B0228F5D90320DEE0A36A002B00F0CE
:10267000DA80182D00F08980022B13D0134A1368DA
:1026800023F08073136003F0A7FF04460F4B1B6811
:1026900013F0007F70D003F09FFF001B0228F5D9D4
:1026A0000320C1E0094A136823F08073136003F02C
:1026B00093FF0546054B1B6813F0007F0AD003F01B
:1026C0008BFF401B0228F5D90320ADE0000C02442B
:1026D000000802445C4B9A6A22F47C5222F0030206
:1026E000E16A206B41EA00210A439A62626B013A77
:1026F000C2F30802A16B0139490289B20A43E16BB6
:102700000139090401F4FE010A43216C013909066B
:1027100001F0FE410A435A639A6A22F010029A625B
:10272000E26CD2009A639A6A42F010029A629A6A44
:1027300022F00C02616C0A439A629A6A22F020022B
:10274000A16C0A439A629A6A42F480329A621A68C9
:1027500042F080721A6003F03FFF04463A4B1B6858
:1027600013F0007F06D103F037FF001B0228F5D9D4
:10277000032059E0002057E0334A936A23F4E02312
:1027800023F00303936200204EE02F4A916A506BBE
:10279000012B4AD001F00303E26A934247D1C1F30F
:1027A0000521236B994244D1C0F30802636B013BBE
:1027B0009A4240D1C0F34622A36B013B9A423CD1DE
:1027C000C0F30642E36B013B9A4238D1C0F3066086
:1027D000236C013B984234D11B4B9B6BC3F3CC035E
:1027E000E26C934201D100201EE0174A936A23F065
:1027F0001003936203F0F0FE054603F0EDFEA842DD
:10280000FBD0E26CD200104B9A639A6A42F010023D
:102810009A62002008E001207047012004E00120B6
:1028200002E0012000E00020F8BD0120FCE70120CB
:10283000FAE70120F8E70120F6E70120F4E701209C
:10284000F2E70120F0E700BF000C024408B5FFF7F3
:10285000A1FC054B1B6AC3F30213044AD35C03F0CB
:102860001F03D84008BD00BF000C0244004103080C
:1028700008B5FFF78FFC054B1B6AC3F30223044A1C
:10288000D35C03F01F03D84008BD00BF000C024416
:102890000041030808B5FFF77DFC054B1B6AC3F335
:1028A0000233044AD35C03F01F03D84008BD00BFC5
:1028B000000C02440041030838B50546344A136849
:1028C00023F08063136003F087FE0446304B1B68DF
:1028D00013F0006F06D003F07FFE001B0228F5D92D
:1028E000032038BD2A4BDA6A22F47C5222F003021C
:1028F0002968686841EA00210A43DA62AA68013A55
:10290000C2F30802E9680139490289B20A43296918
:102910000139090401F4FE010A4369690139090614
:1029200001F0FE410A43DA63DA6A22F00C02A96977
:102930000A43DA62DA6A22F02002E9690A43DA62BB
:10294000DA6A696A0A43DA62DA6A22F01002DA6243
:102950001A6C6FF3CF02296A42EAC1021A64DA6A7A
:1029600042F01002DA621A6842F080621A6003F0E4
:1029700033FE0446064B1B6813F0006F06D103F0CC
:102980002BFE001B0228F5D90320AAE70020A8E7A8
:10299000000C024438B50546344A136823F08053CE
:1029A000136003F019FE0446304B1B6813F0005F00
:1029B00006D003F011FE001B0228F5D9032038BD14
:1029C0002A4B1A6B22F47C5222F0030229686868B1
:1029D00041EA00210A431A63AA68013AC2F30802D5
:1029E000E9680139490289B20A43296901390904B0
:1029F00001F4FE010A4369690139090601F0FE414B
:102A00000A435A641A6B22F00C02A9690A431A633A
:102A10001A6B22F02002E9690A431A631A6B696A89
:102A20000A431A631A6B22F010021A639A6C6FF34E
:102A3000CF02296A42EAC1029A641A6B42F010027C
:102A40001A631A6842F080521A6003F0C5FD04460A
:102A5000064B1B6813F0005F06D103F0BDFD001BA1
:102A60000228F5D90320AAE70020A8E7000C0244B9
:102A7000F8B50446036813F0807F08D0904AD2F876
:102A8000E83023F04043816D0B43C2F8E8302368FF
:102A900013F0010F21D0E36D052B3ED8DFE803F0E2
:102AA00011030B11111104F10800FFF705FF054692
:102AB00045B12E4613E004F13000FFF76BFF0546E9
:102AC000F6E700257E4AD2F8D83023F00703E16DFF
:102AD0000B43C2F8D830002601E0002635462368B3
:102AE00013F0020F34D0236E282B2FD8DFE803F029
:102AF0001D2E2E2E2E2E2E2E182E2E2E2E2E2E2E1D
:102B0000282E2E2E2E2E2E2E1D2E2E2E2E2E2E2EFC
:102B10001D2E2E2E2E2E2E2E1D0001263546DEE7D2
:102B200004F10800FFF7C8FE054665BB644AD2F809
:102B3000D83023F03803216E0B43C2F8D83007E0B9
:102B400004F13000FFF726FF0546EEE70126354683
:102B5000236813F0040F2DD0636E802B23D017D879
:102B600033B1402B11D104F10800FFF7A5FE054653
:102B7000FDB9534AD2F8D83023F4E073616E0B43A9
:102B8000C2F8D83016E02E46E2E70126354611E0BD
:102B9000B3F5807FECD0B3F5A07FE9D0C02BE7D0B0
:102BA0000126354606E004F13000FFF7F3FE054646
:102BB000DEE72E46236813F0080F2ED0A36EB3F580
:102BC000806F23D016D83BB1B3F5007F0FD104F14D
:102BD0000800FFF771FE0546F5B9394AD2F8D8303A
:102BE00023F46063A16E0B43C2F8D83015E00126D0
:102BF000354612E0B3F5006FEED0B3F5206FEBD0A1
:102C0000B3F5C06FE8D00126354606E004F1300088
:102C1000FFF7C0FE0546DFE72E46236813F0100FCE
:102C20002ED0E36EB3F5005F23D016D83BB1B3F5D9
:102C3000805F0FD104F10800FFF73EFE0546F5B9AD
:102C40001F4AD2F8D83023F4E043E16E0B43C2F8B8
:102C5000D83015E00126354612E0B3F5804FEED0AE
:102C6000B3F5A04FEBD0B3F5405FE8D00126354671
:102C700006E004F13000FFF78DFE0546DFE72E4643
:102C8000236813F0200F30D0236FB3F5803F25D099
:102C900018D83BB1B3F5004F0FD104F10800FFF78E
:102CA0000BFE054605BB064AD2F8D83023F4603344
:102CB000216F0B43C2F8D83017E00126354614E0E7
:102CC000000C0244B3F5003FECD0B3F5203FE9D04F
:102CD000B3F5C03FE6D00126354606E004F13000EA
:102CE000FFF758FE0546DDE72E46236813F0400F38
:102CF0002ED0636FB3F5002F23D016D83BB1B3F5B8
:102D0000802F0FD104F10800FFF7D6FD0546F5B975
:102D1000A34AD2F8D83023F4E013616F0B43C2F812
:102D2000D83015E00126354612E0B3F5801FEED00D
:102D3000B3F5A01FEBD0B3F5402FE8D00126354600
:102D400006E004F13000FFF725FE0546DFE72E46DA
:102D5000236813F0800F2ED0A36FB3F5800F23D01C
:102D600016D83BB1B3F5001F0FD104F10800FFF7EF
:102D7000A3FD0546F5B98A4AD2F8D83023F460039A
:102D8000A16F0B43C2F8D83015E00126354612E09A
:102D9000B3F5000FEED0B3F5200FEBD0B3F5C00FB5
:102DA000E8D00126354606E004F13000FFF7F2FDD9
:102DB0000546DFE72E46236813F4807F2ED0E36FAD
:102DC000B3F1007F23D016D83BB1B3F1807F0FD190
:102DD00004F10800FFF770FD0546F5B9704AD2F816
:102DE000D83023F0E063E16F0B43C2F8D83015E030
:102DF0000126354612E0B3F1806FEED0B3F1A06F3B
:102E0000EBD0B3F1407FE8D00126354606E004F16F
:102E10003000FFF7BFFD0546DFE72E46236813F4B9
:102E2000007F30D0D4F88030B3F1805F24D017D841
:102E30003BB1B3F1006F10D104F10800FFF73CFD86
:102E40000546FDB9564AD2F8D83023F06053D4F87D
:102E500080100B43C2F8D83015E00126354612E049
:102E6000B3F1005FEDD0B3F1205FEAD0B3F1C05F02
:102E7000E7D00126354606E004F13000FFF78AFD71
:102E80000546DEE72E46236813F4806F23D0D4F87E
:102E90008430052B1BD8DFE803F00803140808086A
:102EA00004F10800FFF708FD05469DB93C4AD2F839
:102EB000DC3023F00703D4F884100B43C2F8DC3075
:102EC00009E004F13000FFF765FD0546EDE7012656
:102ED000354600E02E46236813F4006F2BD0D4F85B
:102EE0008830202B20D016D833B1102B10D104F10C
:102EF0000800FFF7E1FC0546E5B9294AD2F8DC30C5
:102F000023F07003D4F888100B43C2F8DC3012E0D1
:102F1000012635460FE0402BEED0502BECD0302B65
:102F2000EAD00126354606E004F13000FFF732FD15
:102F30000546E1E72E46236813F4805F33D0D4F8CA
:102F40008C30B3F1007F24D017D83BB1B3F1807F30
:102F500010D104F10800FFF7AFFC054615BB104A7D
:102F6000D2F8E03023F0E063D4F88C100B43C2F8C1
:102F7000E03018E00126354615E0B3F1806FEDD062
:102F8000B3F1A06FEAD0B3F1407FE7D00126354618
:102F900009E004F13000FFF7FDFC0546DEE700BF65
:102FA000000C02442E46236813F4005F22D0D4F8AC
:102FB0009030B3F5803F0DD008D9B3F5003F0ED067
:102FC000B3F5403F0BD00126354613E03BB1012657
:102FD00035460FE004F13000FFF7DCFC0546E5B9AB
:102FE0004B4AD2F8E43023F44033D4F890100B432A
:102FF000C2F8E430236813F4804F24D0D4F894301E
:10300000B3F5802F0FD00AD9B3F5002F10D0B3F548
:10301000402F0DD00126354615E02E46EAE73BB19C
:10302000012635460FE004F13000FFF7B3FC0546FA
:10303000E5B9374AD2F8E43023F44023D4F89410A9
:103040000B43C2F8E430236813F4004F24D0D4F8C3
:103050009830B3F5801F0FD00AD9B3F5001F10D0F8
:10306000B3F5401F0DD00126354615E02E46EAE7A0
:103070003BB1012635460FE004F13000FFF78AFC32
:103080000546E5B9224AD2F8E43023F44013D4F8D7
:1030900098100B43C2F8E430636813F4806F24D0B7
:1030A000D4F89C30B3F5800F0FD00AD9B3F5000FD8
:1030B00010D0B3F5400F0DD00126354615E02E4651
:1030C000EAE73BB1012635460FE004F13000FFF797
:1030D00061FC0546CDB90E4AD2F8E43023F4400332
:1030E000D4F89C100B43C2F8E430236813F4803FFB
:1030F00022D0D4F8A030B3F1807F0BD0B3F1007FA1
:103100000DD063B10126354616E02E46EDE700BF2F
:10311000000C024404F13000FFF73CFC0546002D92
:1031200040F00481C24AD2F8E43023F04073D4F86E
:10313000A0100B43C2F8E430636813F4006F09D0A9
:10314000BB4BDA6922F40042DA61DA69D4F804117F
:103150000A43DA61236813F4003F1ED0D4F8A43088
:10316000B3F5007F00F0F68000F2E58043B1B3F5DF
:10317000807F40F0DD8004F10800FFF79DFB0546ED
:10318000002D40F0ED80AA4AD2F8DC3023F4E06351
:10319000D4F8A4100B43C2F8DC30236813F4802F5A
:1031A0001ED0D4F8A830B3F5005F00F0ED8000F237
:1031B000DC8043B1B3F5805F40F0D48004F10800B7
:1031C000FFF77AFB0546002D40F0E480984AD2F8DC
:1031D000DC3023F4E043D4F8A8100B43C2F8DC3011
:1031E000636813F0200F1ED0D4F8AC30B3F5003F65
:1031F00000F0E48000F2D38043B1B3F5803F40F0AB
:10320000CB8004F10800FFF757FB0546002D40F086
:10321000DB80874AD2F8DC3023F4E023D4F8AC100A
:103220000B43C2F8DC30636813F0400F1ED0D4F8B3
:10323000B030B3F5001F00F0DB8000F2CA8043B16C
:10324000B3F5801F40F0C28004F10800FFF734FBA3
:103250000546002D40F0D280754AD2F8DC3023F4C8
:10326000E003D4F8B0100B43C2F8DC30636813F00D
:10327000800F1ED0D4F8B430B3F1007F00F0D280BC
:1032800000F2C18043B1B3F1807F40F0B98004F116
:103290000800FFF711FB0546002D40F0CB80644A83
:1032A000D2F8DC3023F0E063D4F8B4100B43C2F85A
:1032B000DC30636813F4807F1ED0D4F8B830B3F1EB
:1032C000005F00F0CB8000F2BA8043B1B3F1805FC1
:1032D00040F0B28004F10800FFF7EEFA0546002D39
:1032E00040F0C280524AD2F8DC3023F0E043D4F8F8
:1032F000B8100B43C2F8DC30236813F4002F00F041
:10330000D980D4F8C030B3F5003F00F0CC8000F293
:10331000B080002B00F0B680B3F5803F40F0A6806F
:1033200004F10800FFF7C8FA0546B0E02E4603E7AF
:103330000126354631E7B3F5806F3FF421AFB3F591
:10334000A06F3FF41DAFB3F5407F3FF419AF0126E6
:10335000354622E704F13000FFF71CFB05460FE776
:103360002E461AE7012635463AE7B3F5804F3FF47B
:103370002AAFB3F5A04F3FF426AFB3F5405F3FF45B
:1033800022AF012635462BE704F13000FFF702FBA0
:10339000054618E72E4623E70126354643E7B3F5F1
:1033A000802F3FF433AFB3F5A02F3FF42FAFB3F529
:1033B000403F3FF42BAF0126354634E704F130009F
:1033C000FFF7E8FA054621E72E462CE701263546A9
:1033D0004CE7B3F5800F3FF43CAFB3F5A00F3FF4DB
:1033E00038AFB3F5401F3FF434AF012635463DE713
:1033F00004F13000FFF7CEFA05462AE72E4635E7FE
:103400000126354655E7B3F1806F3FF445AFB3F180
:10341000A06F3FF441AFB3F1407F3FF43DAF0126D1
:10342000354646E704F13000FFF7B4FA054633E7C6
:10343000000C02442E463CE7012635465CE7B3F11A
:10344000804F3FF44CAFB3F1A04F3FF448AFB3F11E
:10345000405F3FF444AF012635464DE704F13000AC
:10346000FFF798FA05463AE72E4645E70126354626
:1034700020E0B3F5403F0AD0B3F5802F07D00126F6
:10348000354617E0AF4A936A43F40033936285B937
:10349000AC4AD2F8E83023F4E023D4F8C0100B4350
:1034A000C2F8E83006E004F13000FFF773FA054691
:1034B000EDE72E46236813F4801F2BD0D4F8C430D8
:1034C000B3F5801F35D00CD8A3B1B3F5002F05D1CB
:1034D00004F10800FFF7F0F9054610E00126354633
:1034E00018E0B3F5C01F0AD0B3F5001F07D00126BE
:1034F00035460FE0934A936A43F400339362F5B97B
:10350000904AD2F8E83023F46013D4F8C4100B4387
:10351000C2F8E830236813F4001F27D0D4F8D43061
:10352000022B13D00DD9033B022B14D901263546AB
:103530001CE004F13000FFF72DFA0546DFE72E46C8
:10354000E8E7012B07D9012635460FE004F1080012
:10355000FFF7B2F905466DBB7A4AD2F8E83023F09E
:103560000703D4F8D4100B43C2F8E830636813F4AF
:10357000007F06D0D4F8D830F3B1082B1CD0012638
:103580003546236813F0007F22D1236813F0806F43
:1035900000F0A780D4F8C830102B00F0928040F2E1
:1035A0008C80202B00F09280302B00F08F80012641
:1035B000354696E02E46D9E745B96249D1F8E8206C
:1035C00022F008021343C1F8E830DAE72E46D8E7C4
:1035D0005D4A536A43F00103536202F0FDFF074660
:1035E000594B5B6A13F0010F05D102F0F5FFC01BC8
:1035F0000228F5D90325002D5BD1524BD3F8F030CA
:1036000013F4407319D0D4F8F8209A4212D04D4ADE
:10361000D2F8F03023F44073D2F8F01041F4803146
:10362000C2F8F010D2F8F01021F48031C2F8F01096
:10363000C2F8F03013F0010F1ED1002D3BD1D4F8A9
:10364000F83003F44072B2F5407F27D03D4AD36989
:1036500023F47C53D3613B4BD3F8F02022F4407227
:10366000C3F8F020D3F8F020D4F8F810C1F30B0120
:103670000A43C3F8F02088E702F0AEFF0746314B5B
:10368000D3F8F03013F0020FD7D102F0A5FFC01B22
:1036900041F288339842F2D90325CEE72949CA6915
:1036A00022F47C52C3F3171323F030031343CB618E
:1036B000D1E72E4669E72E4667E73BB1012635463E
:1036C0000FE0204A936A43F40033936205BB1D4A1E
:1036D000D2F8E83023F03003D4F8C8100B43C2F816
:1036E000E830236813F4800F06D0D4F8CC308BB1C7
:1036F000402B20D001263546236813F4000F3FD01D
:10370000D4F8D03023B3802B33D00126354637E0B0
:103710002E46E6E70B4A936A43F400339362ADB951
:10372000084AD2F8E43023F04003D4F8CC100B431D
:10373000C2F8E430E0E704F10800FFF7BDF8054601
:10374000EDE700BF000C0244000802442E46D3E718
:103750009A4A936A43F40033936285B9974AD2F840
:10376000E43023F08003D4F8D0100B43C2F8E430E7
:1037700006E004F10800FFF79FF80546EDE72E4646
:10378000236813F0006F29D0D4F8E030042B21D83F
:10379000DFE803F003141A080800884A936A43F428
:1037A00000339362CDB9854AD2F8E03023F00703A5
:1037B000D4F8E0100B43C2F8E0300FE004F1080049
:1037C000FFF77AF80546EDE704F13000FFF7E2F87D
:1037D0000546E7E70126354600E02E46236813F04C
:1037E000805F35D0D4F8E430202B2FD8DFE803F009
:1037F000112E2E2E2E2E2E2E222E2E2E2E2E2E2E12
:10380000282E2E2E2E2E2E2E162E2E2E2E2E2E2EF6
:1038100016006A4A936A43F4003393625DBB674AB9
:10382000D2F8E03023F03803D4F8E4100B43C2F8A8
:10383000E0300DE004F10800FFF73EF80546EDE743
:1038400004F13000FFF7A6F80546E7E70126354604
:10385000236813F0005F2CD0D4F8E830802B00F000
:1038600090800DD8A3B1402B07D104F10800FFF7D9
:1038700023F8054611E02E46EAE70126354618E012
:10388000C02B0AD0B3F5807F07D00126354610E063
:103890004A4A936A43F400339362002D77D1474A32
:1038A000D2F8E03023F4E073D4F8E8100B43C2F808
:1038B000E030236813F0804F1AD0D4F8EC30B3F521
:1038C000806F75D068D83BB1B3F5007F61D104F14A
:1038D0000800FEF7F1FF0546002D71D1374AD2F8F6
:1038E000E03023F46063D4F8EC100B43C2F8E0300E
:1038F0002368002B1ADAD4F8F030B3F5005F70D0EB
:1039000063D83BB1B3F5805F5CD104F10800FEF7EA
:10391000D3FF0546002D6AD1284AD2F8E03023F4BF
:10392000E043D4F8F0100B43C2F8E030636813F0C2
:10393000010F1AD0D4F8F430B3F5803F68D05BD8CB
:103940003BB1B3F5004F54D104F10800FEF7B4FFCA
:103950000546002D62D1194AD2F8E03023F46033D5
:10396000D4F8F4100B43C2F8E030636813F0020F90
:1039700066D0D4F8DC30032B78D8DFE803F056515A
:10398000715604F13000FFF705F8054685E72E462D
:103990008FE701263546ABE7B3F5006F9CD0B3F552
:1039A000206F99D0B3F5C06F96D0012635469FE7BA
:1039B00004F13000FEF7EEFF05468DE7000C0244EF
:1039C0002E4695E701263546B0E7B3F5804FA1D0E6
:1039D000B3F5A04F9ED0B3F5405F9BD0012635468E
:1039E000A4E704F13000FEF7D5FF054692E72E4626
:1039F0009CE701263546B8E7B3F5003FA9D0B3F5FB
:103A0000203FA6D0B3F5C03FA3D001263546ACE792
:103A100004F13000FEF7BEFF05469AE72E46A4E704
:103A20003C4A936A43F40033936215BB394AD2F897
:103A3000E43023F00303D4F8DC100B43C2F8E43085
:103A4000636813F0040F27D0D4F8BC30B3F5807F3F
:103A500011D0B3F5007F4BD093B1012635461BE062
:103A600004F10800FEF728FF0546DEE7012635468B
:103A7000E6E72E46E4E7274A936A43F4003393626D
:103A8000002D3BD1234AD2F8E83023F44073D4F818
:103A9000BC100B43C2F8E830636813F0100F17D066
:103AA000D4F80031202B2BD0302B06D0102B2DD169
:103AB000184A936A43F4003393624DBB154AD2F817
:103AC000E43023F03003D4F800110B43C2F8E430A3
:103AD000636813F0080F09D00E4AD2F8E83023F0DB
:103AE000C003D4F8FC100B43C2F8E8303046F8BDF0
:103AF00004F10800FEF7E0FE0546C1E72E46CBE7DD
:103B000004F13000FEF746FF0546D6E70126DFE761
:103B10002E46DDE7000C024430B580494A6BC2F303
:103B200008028B6A03F0030C8C6AC4F305258B6AC8
:103B3000C3F3001E8B6BC3F3CC030EFB03F314F42F
:103B40007C5F00F0E68007EE903AF8EE677ABCF111
:103B5000020F41D0BCF1030F57D0BCF1010F6DD162
:103B60000968C1F3C1016E4BCB4007EE103AB8EEC5
:103B7000476A07EE105AB8EE477AC6EE076A07EEB4
:103B8000102AB8EE477A9FED676A67EE867A77EE7D
:103B9000277AB7EE007A77EE877A66EEA77A5F4BE0
:103BA0001B6813F0007F6DD05C4B9B6A13F4803F61
:103BB00065D05A4B5B6BC3F3462307EE103AB8EE61
:103BC000477AF7EE006A37EE267AC7EE876AFCEE90
:103BD000E66AC0ED006A57E007EE105AB8EE477A81
:103BE0009FED516AC6EE076A07EE102AB8EE477AD3
:103BF0009FED4C6A67EE867A77EE277AB7EE007A09
:103C000077EE877A66EEA77AC9E707EE105AB8EE24
:103C1000477A9FED466AC6EE076A07EE102AB8EEAD
:103C2000477A9FED406A67EE867A77EE277AB7EE9D
:103C3000007A77EE877A66EEA77AB0E7374B196895
:103C4000C1F3C101364BCB4007EE103AB8EE476ADC
:103C500007EE105AB8EE477AC6EE076A07EE102A4A
:103C6000B8EE477A9FED2F6A67EE867A77EE277A6D
:103C7000B7EE007A77EE877A66EEA77A8FE70023B1
:103C8000036001E000230360244B1B6813F0007FF6
:103C90001AD0224B9B6A13F4003F12D01F4B5B6B70
:103CA000C3F3064307EE103AB8EE477AF7EE006A20
:103CB00037EE267AC7EE876AFCEEE66AC0ED016A47
:103CC00004E00023436001E000234360134B1B68C2
:103CD00013F0007F1AD0114B9B6A13F4802F12D07F
:103CE0000E4B5B6BC3F3066307EE103AB8EE477AF0
:103CF000F7EE006A37EE267AC7EE876AFCEEE66AD0
:103D0000C0ED026A09E00023836006E000238360BF
:103D100003E0002303604360836030BD000C024475
:103D20000090D003000000390024744A0024F44AB3
:103D300030B58049CA6BC2F30802CB6A03F0030CAA
:103D4000CC6AC4F30525CB6AC3F3001E0B6CC3F326
:103D5000CC030EFB03F314F47C5F00F0E68007EE67
:103D6000903AF8EE677ABCF1020F41D0BCF1030F34
:103D700057D0BCF1010F6DD10968C1F3C1016E4B81
:103D8000CB4007EE103AB8EE476A07EE105AB8EE8D
:103D9000477AC6EE076A07EE102AB8EE477A9FED1B
:103DA000676A67EE867A77EE277AB7EE007A77EE63
:103DB000877A66EEA77A5F4B1B6813F0006F6DD0B1
:103DC0005C4BDB6A13F4803F65D05A4BDB6BC3F36B
:103DD000462307EE103AB8EE477AF7EE006A37EE60
:103DE000267AC7EE876AFCEEE66AC0ED006A57E005
:103DF00007EE105AB8EE477A9FED516AC6EE076A91
:103E000007EE102AB8EE477A9FED4C6A67EE867A85
:103E100077EE277AB7EE007A77EE877A66EEA77AA2
:103E2000C9E707EE105AB8EE477A9FED466AC6EE2C
:103E3000076A07EE102AB8EE477A9FED406A67EEF0
:103E4000867A77EE277AB7EE007A77EE877A66EE93
:103E5000A77AB0E7374B1968C1F3C101364BCB40A5
:103E600007EE103AB8EE476A07EE105AB8EE477AF6
:103E7000C6EE076A07EE102AB8EE477A9FED2F6A62
:103E800067EE867A77EE277AB7EE007A77EE877A52
:103E900066EEA77A8FE70023036001E0002303604A
:103EA000244B1B6813F0006F1AD0224BDB6A13F40B
:103EB000003F12D01F4BDB6BC3F3064307EE103AF3
:103EC000B8EE477AF7EE006A37EE267AC7EE876AD1
:103ED000FCEEE66AC0ED016A04E00023436001E005
:103EE00000234360134B1B6813F0006F1AD0114B73
:103EF000DB6A13F4802F12D00E4BDB6BC3F3066327
:103F000007EE103AB8EE477AF7EE006A37EE267AF7
:103F1000C7EE876AFCEEE66AC0ED026A09E000239C
:103F2000836006E00023836003E0002303604360B6
:103F3000836030BD000C02440090D00300000039C3
:103F40000024744A0024F44A30B580494A6CC2F314
:103F500008020B6B03F0030C0C6BC4F305250B6B11
:103F6000C3F3001E8B6CC3F3CC030EFB03F314F4FA
:103F70007C5F00F0E68007EE903AF8EE677ABCF1DD
:103F8000020F41D0BCF1030F57D0BCF1010F6DD12E
:103F90000968C1F3C1016E4BCB4007EE103AB8EE91
:103FA000476A07EE105AB8EE477AC6EE076A07EE80
:103FB000102AB8EE477A9FED676A67EE867A77EE49
:103FC000277AB7EE007A77EE877A66EEA77A5F4BAC
:103FD0001B6813F0005F6DD05C4B1B6B13F4803FCC
:103FE00065D05A4B5B6CC3F3462307EE103AB8EE2C
:103FF000477AF7EE006A37EE267AC7EE876AFCEE5C
:10400000E66AC0ED006A57E007EE105AB8EE477A4C
:104010009FED516AC6EE076A07EE102AB8EE477A9E
:104020009FED4C6A67EE867A77EE277AB7EE007AD4
:1040300077EE877A66EEA77AC9E707EE105AB8EEF0
:10404000477A9FED466AC6EE076A07EE102AB8EE79
:10405000477A9FED406A67EE867A77EE277AB7EE69
:10406000007A77EE877A66EEA77AB0E7374B196861
:10407000C1F3C101364BCB4007EE103AB8EE476AA8
:1040800007EE105AB8EE477AC6EE076A07EE102A16
:10409000B8EE477A9FED2F6A67EE867A77EE277A39
:1040A000B7EE007A77EE877A66EEA77A8FE700237D
:1040B000036001E000230360244B1B6813F0005FE2
:1040C0001AD0224B1B6B13F4003F12D01F4B5B6CBA
:1040D000C3F3064307EE103AB8EE477AF7EE006AEC
:1040E00037EE267AC7EE876AFCEEE66AC0ED016A13
:1040F00004E00023436001E000234360134B1B688E
:1041000013F0005F1AD0114B1B6B13F4802F12D0E9
:104110000E4B5B6CC3F3066307EE103AB8EE477ABA
:10412000F7EE006A37EE267AC7EE876AFCEEE66A9B
:10413000C0ED026A09E00023836006E0002383608B
:1041400003E0002303604360836030BD000C024441
:104150000090D003000000390024744A0024F44A7F
:1041600000F17E430B432CD000B58BB0A0F580133B
:104170000B4300F0C983B04B984271F1000380F00B
:10418000EC81A0F580630B4300F0B48640F201435C
:10419000984271F1000380F01681212871F100032B
:1041A00080F0868050EA010301F0D584013841F1A6
:1041B000FF31202871F1000134D300200BB05DF8ED
:1041C00004FB9E4AD2F8F03003F44073D2F8F0209A
:1041D00012F0020F03D0B3F5807F01F0B484974A48
:1041E000D2F8F02012F0006F03D0B3F5007F01F099
:1041F000AD84924A106810F4003001F02786B3F5C0
:10420000407F01D000207047D36903F47C53B3F59D
:10421000007FC1F09E84D369C3F305238848B0FBB7
:10422000F3F070471F28C8D801A353F820F000BF4F
:10423000D9490108694A0108BB410108EF4A010850
:10424000BB410108BB410108BB410108834B010888
:10425000BB410108BB410108BB410108BB4101084A
:10426000BB410108BB410108BB410108254C0108C5
:10427000BB410108BB410108BB410108BB4101082A
:10428000BB410108BB410108BB410108BB4101081A
:10429000BB410108BB410108BB410108BB4101080A
:1042A000BB410108BB410108BB410108BF4C0108EB
:1042B000A0F580730B4300F0B48540F201139842DF
:1042C00071F1000341D2A0F140030B4300F044859B
:1042D0008038084337D1594BD3F8D83013F46003F2
:1042E00000F08785554A126812F0006F03D0B3F5CD
:1042F000001F00F08285514A126812F0005F03D05F
:10430000B3F5800F00F07F854C4A126812F0020F5F
:1043100003D0B3F5C00F00F07C85484A126812F450
:10432000007F03D0B3F5000F01F07684434AD2F842
:10433000F02012F0020F01F07284B3F5200F01F0AB
:10434000718400203AE7002038E7A0F500700843A8
:1043500037D13A4BD3F8D83013F0605300F0AE8524
:10436000364A126812F0006F03D0B3F1006F00F00C
:10437000A985324A126812F0005F03D0B3F1805F62
:1043800000F0A6852D4A126812F0020F03D0B3F197
:10439000C05F00F0A785294A126812F4007F03D09D
:1043A000B3F1005F01F04C84244AD2F8F02012F0FF
:1043B000020F01F04884B3F1205F01F04784002030
:1043C000FCE60020FAE6A0F500430B4300F0D68699
:1043D00048F20103984271F1000335D3A0F5802320
:1043E0000B4300F08987174B984271F1000380F06E
:1043F0009780A0F580330B4300F00287A0F50030D2
:10440000084340F08B800D4BD3F8DC3003F4E063BD
:10441000B3F5407F00F0448700F21B87B3F5807F3F
:1044200000F03287B3F5007F00F03487002B40F0B6
:104430000D87FEF72FFAC1E601001000000C0244C0
:1044400000127A0001000400A0F500530B4300F0B5
:104450004E8642F20103984271F1000338D2A0F572
:1044600000630B4300F08E85A0F5805008432DD1EA
:10447000A84BD3F8E03013F0E06300F0CB85B3F144
:10448000807F00F0CB85B3F1007F00F0CD85A14A9D
:10449000126812F0020F03D0B3F1407F00F0CA851A
:1044A0009C4A126812F4007F03D0B3F1806F01F0D0
:1044B000E583984AD2F8F02012F0020F01F0E18370
:1044C000B3F1A06F01F0E083002077E6002075E6ED
:1044D000A0F5804008431FD18E4BD3F8E43013F48D
:1044E000402300F03486B3F5802F00F03486894AEB
:1044F000126812F0020F03D0B3F5002F00F03186DE
:10450000844A126812F4007F01F0DC83B3F5402F77
:1045100001F0DB83002051E600204FE600204DE64D
:10452000A0F50020084316D17A4BD3F8E83003F405
:10453000E023B3F5003F00F0CD8100F2AC81002B09
:1045400000F0C381B3F5803F40F0A38104A8FFF7DA
:10455000EFFB049832E6002030E6022908BF00286D
:1045600001F05882002383424FF002038B41C0F0D8
:10457000D78000F170430B4301F01081664B9842E5
:1045800071F100033AD2A0F500030B4300F00E8254
:10459000624B984271F1000316D2A0F500130B4351
:1045A00000F05085A0F5800008430BD1594BD3F89B
:1045B000E43013F0400F40F0F48107A8FFF7ACFAA5
:1045C0000898FBE50020F9E500F17C430B4301F07E
:1045D000658200F1784008430ED14E4BD3F8E030AD
:1045E00003F00703042B01F2C383DFE813F09708FD
:1045F000A308A9089408AF080020DFE5002908BF38
:10460000B0F1004F01F09B814FF0004383424FF027
:1046100000038B4141D300F160430B4301F026813D
:1046200000F14040084336D13A4BD3F8E03013F460
:10463000606301F06C81374A126812F0006F03D09A
:10464000B3F5007F01F06781324A126812F0005F13
:1046500003D0B3F5806F01F064812E4A126812F026
:10466000020F03D0B3F5C06F01F06181294A1268CF
:1046700012F4007F03D0B3F5006F01F09D83254A4B
:10468000126812F4003F01F09A83B3F5206F01F035
:104690009983002092E5002090E5012908BF0028B9
:1046A00036D11C4BD3F8E03013F4603301F0938122
:1046B000184A126812F0006F03D0B3F5004F01F0F2
:1046C0008E81144A126812F0005F03D0B3F5803F68
:1046D00001F092810F4A126812F0020F03D0B3F575
:1046E000C03F01F08F810B4A126812F4007F03D0A3
:1046F000B3F5003F01F07283064A126812F4003FDE
:1047000001F06F83B3F5203F01F06E83002055E583
:10471000002053E5000C024401000010010080005D
:10472000402908BF002800F0AB86002383424FF0E9
:1047300040038B412ED2B1F5007F08BF002800F066
:10474000BC84002383424FF400738B417AD38029C9
:1047500008BF002800F0FE86B1F5807F08BF002862
:104760006ED19B4BD3F8DC3003F0E043B3F1405FF4
:1047700000F0848700F25B87B3F1805F00F07287FE
:10478000B3F1005F00F07487002B40F04D87FEF717
:1047900081F813E5102908BF002801F0AE8100233D
:1047A00083424FF010038B412BD3042908BF00280C
:1047B00000F09087082908BF002820D1844AD2F849
:1047C000E83003F0C003D2F8F02012F0020F02D05C
:1047D000002B01F018837E4AD2F8F02012F0006F0F
:1047E00002D0402B01F01383794A126812F4007F43
:1047F00001F01183802B01F011830020DEE4002002
:10480000DCE4202908BF002818D1714BD3F8DC3034
:1048100003F4E023B3F5403F00F0028600F2D985AF
:10482000B3F5803F00F0F085B3F5003F00F0F2856E
:10483000002B40F0CB85FEF72DF8BFE40020BDE44F
:104840000020BBE4B1F5806F08BF00281FD1604B8A
:10485000D3F8E43013F4400300F0C084B3F5800FC4
:1048600000F0C0845A4A126812F0020F03D0B3F568
:10487000000F00F0BD84564A126812F4007F01F068
:104880002D82B3F5400F01F02C82002096E4002029
:1048900094E4002092E4B3F5403F01F05F81B3F56A
:1048A000802F10D14A4AD2F8E83003F04043126812
:1048B00012F0020F13D093B9454B1B68C3F3C10329
:1048C0004448D8407AE4002078E407A8FFF724F9A8
:1048D000089873E401A8FFF737FB01986EE43C4A9F
:1048E000126812F4007F03D0B3F1804F01F03981D8
:1048F000374A126812F4003F01F03681B3F1004FDD
:1049000001F03581002059E4314BD3F8E83003F44D
:104910006013B3F5801F2AD00AD81BB3B3F5002F5C
:1049200004D104A8FFF704FA049847E4002045E402
:10493000B3F5C01F01F01E81B3F5001F10D1244A4A
:10494000D2F8E83003F04043126812F0020F13D09F
:1049500093B91F4B1B68C3F3C1031E48D8402DE415
:1049600000202BE407A8FFF7D7F8089826E401A851
:10497000FFF7EAFA019821E4154A126812F4007F61
:1049800003D0B3F1804F01F0F880114A126812F49D
:10499000003F01F0F580B3F1004F01F0F4800020FA
:1049A0000CE404A8FFF7C4F9069807E4084BD3F811
:1049B000E43013F0800F05D107A8FFF7ADF8089891
:1049C000FFF7FCBB04A8FFF7B3F90698FFF7F6BBA7
:1049D000000C02440090D003904BD3F8D83013F071
:1049E000070329D08D4A126812F0006F01D0012B05
:1049F00026D08A4A126812F0005F01D0022B25D01F
:104A0000864A126812F0020F01D0032B24D0834A89
:104A1000126812F4007F02D0042B01F0B7807F4AA5
:104A2000D2F8F02012F0020F01F0B380052B01F054
:104A3000B3800020FFF7C2BBFDF71AFFFFF7BEBB34
:104A400004A8FFF775F90598FFF7B8BB01A8FFF7B1
:104A50007BFA0298FFF7B2BB704B1B68C3F3C1032C
:104A60006F48D840FFF7AABB6C4BD3F8D83013F08F
:104A7000380324D0694A126812F0006F01D0082B65
:104A800021D0102B25D0654A126812F0020F01D0F8
:104A9000182B24D0614A126812F4007F02D0202B18
:104AA00001F07E805D4AD2F8F02012F0020F01F092
:104AB0007A80282B01F07A800020FFF77FBBFDF77A
:104AC000C5FEFFF77BBB04A8FFF732F90598FFF797
:104AD00075BB01A8FFF738FA0298FFF76FBB4F4B81
:104AE0001B68C3F3C1034E48D840FFF767BB4B4B6D
:104AF000D3F8D83013F4E0732BD0484A126812F080
:104B0000006F01D0402B28D0444A126812F0005F99
:104B100001D0802B27D0414A126812F0020F01D039
:104B2000C02B26D03D4A126812F4007F03D0B3F5A3
:104B3000807F01F03F80394AD2F8F02012F0020F56
:104B400001F03B80B3F5A07F01F03A800020FFF731
:104B500035BBFDF77BFEFFF731BB04A8FFF7E8F894
:104B60000598FFF72BBB01A8FFF7EEF90298FFF7B6
:104B700025BB2A4B1B68C3F3C1032948D840FFF764
:104B80001DBB264BD3F8D83013F460632ED0234AD4
:104B9000126812F0006F02D0B3F5007F2AD01F4ACE
:104BA000126812F0005F02D0B3F5806F28D01B4A64
:104BB000126812F0020F02D0B3F5C06F26D0174A68
:104BC000126812F4007F03D0B3F5006F00F0FC8789
:104BD000124AD2F8F02012F0020F00F0F887B3F575
:104BE000206F00F0F7870020FFF7E8BAFDF72EFEF0
:104BF000FFF7E4BA04A8FFF79BF80598FFF7DEBAC1
:104C000001A8FFF7A1F90298FFF7D8BA034B1B6878
:104C1000C3F3C1030248D840FFF7D0BA000C0244E6
:104C20000090D003AD4BD3F8D83013F4E0432ED02E
:104C3000AA4A126812F0006F02D0B3F5805F2AD042
:104C4000A64A126812F0005F02D0B3F5005F28D0C8
:104C5000A24A126812F0020F02D0B3F5405F26D0CC
:104C60009E4A126812F4007F03D0B3F5804F00F023
:104C7000B5879A4AD2F8F02012F0020F00F0B187FF
:104C8000B3F5A04F00F0B0870020FFF797BAFDF70B
:104C9000DDFDFFF793BA04A8FFF74AF80598FFF780
:104CA0008DBA01A8FFF750F90298FFF787BA8B4B2E
:104CB0001B68C3F3C1038A48D840FFF77FBA874B0C
:104CC000D3F8D83013F460332ED0844A126812F02F
:104CD000006F02D0B3F5004F2AD0804A126812F05C
:104CE000005F02D0B3F5803F28D07C4A126812F0F2
:104CF000020F02D0B3F5C03F26D0784A126812F4F2
:104D0000007F03D0B3F5003F00F07287734AD2F8FA
:104D1000F02012F0020F00F06E87B3F5203F00F094
:104D20006D870020FFF74ABAFDF790FDFFF746BAFE
:104D300004A8FEF7FDFF0598FFF740BA01A8FFF7AA
:104D400003F90298FFF73ABA644B1B68C3F3C10337
:104D50006348D840FFF732BA604BD3F8D83013F429
:104D6000E0132ED05D4A126812F0006F02D0B3F546
:104D7000802F2AD0594A126812F0005F02D0B3F592
:104D8000002F28D0554A126812F0020F02D0B3F556
:104D9000402F26D0514A126812F4007F03D0B3F599
:104DA000801F00F02F874D4AD2F8F02012F0020F3A
:104DB00000F02B87B3F5A01F00F02A870020FFF733
:104DC000FDB9FDF743FDFFF7F9B904A8FEF7B0FF01
:104DD0000598FFF7F3B901A8FFF7B6F80298FFF7B7
:104DE000EDB93E4B1B68C3F3C1033D48D840FFF704
:104DF000E5B9FDF72BFDFFF7E1B904A8FEF798FF31
:104E00000598FFF7DBB901A8FFF79EF80298FFF7B6
:104E1000D5B9324B1B68C3F3C1033148D840FFF703
:104E2000CDB92E4BD3F8D83013F0E0632ED02B4AF7
:104E3000126812F0006F02D0B3F1807F2AD0274AA7
:104E4000126812F0005F02D0B3F1007F28D0234A2D
:104E5000126812F0020F02D0B3F1407F26D01F4A31
:104E6000126812F4007F03D0B3F1806F00F0DE8689
:104E70001A4AD2F8F02012F0020F00F0DA86B3F1ED
:104E8000A06F00F0D9860020FFF798B9FDF7DEFC8F
:104E9000FFF794B904A8FEF74BFF0598FFF78EB90A
:104EA00001A8FFF751F80298FFF788B90B4B1B6870
:104EB000C3F3C1030A48D840FFF780B9FDF7C6FC29
:104EC000FFF77CB904A8FEF733FF0598FFF776B922
:104ED00001A8FFF739F80298FFF770B9000C0244F7
:104EE0000090D003A34B1B68C3F3C103A248D84072
:104EF000FFF764B99F4BD3F8DC3013F0070329D0D8
:104F00009C4A126812F0006F01D0012B26D0994AFA
:104F1000126812F0005F01D0022B25D0954A12686A
:104F200012F0020F01D0032B24D0924A126812F41F
:104F3000007F02D0042B00F08D868E4AD2F8F0203C
:104F400012F0020F00F08986052B00F08986002000
:104F5000FFF734B9FDF77AFCFFF730B904A8FEF784
:104F6000E7FE0598FFF72AB901A8FEF7EDFF0298C2
:104F7000FFF724B97F4B1B68C3F3C1037E48D840B9
:104F8000FFF71CB97B4BD3F8DC3013F0700329D04A
:104F9000784A126812F0006F01D0102B26D0754AA3
:104FA000126812F0005F01D0202B25D0714A1268E0
:104FB00012F0020F01D0302B24D06E4A126812F486
:104FC000007F02D0402B00F04F866A4AD2F8F020D2
:104FD00012F0020F00F04B86502B00F04B860020A1
:104FE000FFF7ECB8FDF732FCFFF7E8B804A8FEF7CE
:104FF0009FFE0598FFF7E2B801A8FEF7A5FF02980B
:10500000FFF7DCB85B4B1B68C3F3C1035A48D840B9
:10501000FFF7D4B8FDF73EFCFFF7D0B804A8FEF7C1
:1050200087FE0598FFF7CAB801A8FEF78DFF029822
:10503000FFF7C4B84F4B1B68C3F3C1034E48D840B9
:10504000FFF7BCB84B4BD3F8E83013F007031ED082
:10505000012B20D0022B22D0464A126812F4003FC6
:1050600002D0032B00F01486424A126812F0020F9D
:1050700001D0042B19D03F4A126812F4007F00F0CF
:105080000A86052B00F00A860020FFF797B8FDF787
:1050900081F8FFF793B8FCF745FEFFF78FB804A837
:1050A000FEF746FE0698FFF789B8324B1B68C3F33C
:1050B000C1033148D840FFF781B82E4AD2F8E83012
:1050C00003F00803D2F8F02012F0020F02D0002BF8
:1050D00000F0E785274AD2F8F02012F0006F00F0C8
:1050E000E485002B40F0E4850020FFF767B8214BF2
:1050F000D3F8E43013F4403317D0B3F5803F18D021
:105100001C4A126812F0020F02D0B3F5003F16D00D
:10511000184A126812F4007F00F0CE85B3F5403FC4
:1051200000F0CD850020FFF749B8FDF78FFBFFF7B2
:1051300045B801A8FEF708FF0398FFF73FB80D4BED
:105140001B68C3F3C1030C48D840FFF737B8FDF71D
:105150007DFBFFF733B801A8FEF7F6FE0398FFF7D3
:105160002DB8044B1B68C3F3C1030348D840FFF7B5
:1051700025B800BF000C02440090D003B34BD3F815
:10518000E43013F4401317D0B3F5801F18D0AF4AA2
:10519000126812F0020F02D0B3F5001F16D0AB4A0E
:1051A000126812F4007F00F09385B3F5401F00F001
:1051B00092850020FFF702B8FDF76CFBFEF7FEBFFB
:1051C00001A8FEF7C1FE0398FEF7F8BF9F4B1B68CE
:1051D000C3F3C1039E48D840FEF7F0BFFDF75AFB6A
:1051E000FEF7ECBF01A8FEF7AFFE0398FEF7E6BF9F
:1051F000964B1B68C3F3C1039548D840FEF7DEBF4A
:10520000924BD3F8E43013F040730ED0B3F1807FAB
:105210000FD08E4A106810F002003EF4CFAFB3F109
:10522000007F0CD00020FEF7C9BFFDF70FFBFEF793
:10523000C5BF01A8FEF788FE0398FEF7BFBF13683D
:10524000C3F3C1038248D840FEF7B8BF0020FEF781
:10525000B5BFB3F5806F2ED0B3F5A06F11D17B4AE7
:10526000D2F8E83003F04043126812F0020F2DD05C
:1052700063BB764B1B68C3F3C1037548D840FEF788
:105280009DBF0020FEF79ABF04A8FEF751FD0498C9
:10529000FEF794BF01A8FEF757FE0398FEF78EBFF6
:1052A0006A4BD3F8F00010F002003EF487AF4FF4E1
:1052B0000040FEF783BF654BD3F8F00010F00060AC
:1052C0003EF47CAF4FF4FA40FEF778BF5F4A1268B5
:1052D00012F4007F03D0B3F1804F00F005855B4AE4
:1052E000126812F4003F00F00285B3F1004F00F0A5
:1052F00001850020FEF762BF544BD3F8DC3003F485
:10530000E043B3F5405F35D00DD8B3F5805F25D0CD
:10531000B3F5005F28D01BB9FDF798FAFEF74EBF32
:105320000020FEF74BBFB3F5804F2ED0B3F5A04F52
:1053300011D1464AD2F8E83003F04043126812F027
:10534000020F2DD063BB414B1B68C3F3C103404820
:10535000D840FEF733BF0020FEF730BF04A8FEF7A9
:10536000E7FC0498FEF72ABF01A8FEF7EDFD0398BD
:10537000FEF724BF354BD3F8F00010F002003EF4E6
:105380001DAF4FF40040FEF719BF304BD3F8F000CB
:1053900010F000603EF412AF4FF4FA40FEF70EBF7B
:1053A0002A4A126812F4007F03D0B3F1804F00F054
:1053B000A484264A126812F4003F00F0A184B3F1DD
:1053C000004F00F0A0840020FEF7F8BE0020FEF79A
:1053D000F5BEB3F5802F2ED0B3F5A02F11D11B4A07
:1053E000D2F8E83003F04043126812F0020F31D0D7
:1053F00083BB164B1B68C3F3C1031548D840FEF7A7
:10540000DDBE0020FEF7DABE04A8FEF791FC04988A
:10541000FEF7D4BE01A8FEF797FD0398FEF7CEBEB7
:105420000A4BD3F8F00010F002003EF4C7AE4FF480
:105430000040FEF7C3BE054BD3F8F00010F000604B
:105440003EF4BCAE4FF4FA40FEF7B8BE000C024486
:105450000090D003B44A126812F4007F03D0B3F175
:10546000804F00F05384B04A126812F4003F00F0FD
:105470005084B3F1004F00F04F840020FEF79EBE31
:10548000A94BD3F8DC3003F4E003B3F5401F35D06B
:105490000DD8B3F5801F25D0B3F5001F28D01BB958
:1054A000FDF7F8F9FEF78ABE0020FEF787BEB3F5D8
:1054B000800F2ED0B3F5A00F11D19B4AD2F8E8305F
:1054C00003F04043126812F0020F2DD063BB964BDD
:1054D0001B68C3F3C1039548D840FEF76FBE002098
:1054E000FEF76CBE04A8FEF723FC0498FEF766BE28
:1054F00001A8FEF729FD0398FEF760BE8A4BD3F89A
:10550000F00010F002003EF459AE4FF40040FEF7F8
:1055100055BE854BD3F8F00010F000603EF44EAE5F
:105520004FF4FA40FEF74ABE7F4A126812F4007F39
:1055300003D0B3F1804F00F0FD837B4A126812F470
:10554000003F00F0FA83B3F1004F00F0F983002030
:10555000FEF734BE744BD3F8DC3003F0E063B3F1F4
:10556000407F35D00DD8B3F1807F25D0B3F1007FD7
:1055700028D01BB9FDF78EF9FEF720BE0020FEF7FC
:105580001DBEB3F1806F2ED0B3F1A06F11D1664A6A
:10559000D2F8E83003F04043126812F0020F2DD029
:1055A00063BB614B1B68C3F3C1036048D840FEF77F
:1055B00005BE0020FEF702BE04A8FEF7B9FB049862
:1055C000FEF7FCBD01A8FEF7BFFC0398FEF7F6BD91
:1055D000554BD3F8F00010F002003EF4EFAD4FF45D
:1055E0000040FEF7EBBD504BD3F8F00010F0006028
:1055F0003EF4E4AD4FF4FA40FEF7E0BD4A4A1268CB
:1056000012F4007F03D0B3F1804F00F09C83464A30
:10561000126812F4003F00F09983B3F1004F00F0DC
:1056200098830020FEF7CABD0020FEF7C7BDB3F186
:10563000804F2ED0B3F1A04F11D13B4AD2F8E830C1
:1056400003F04043126812F0020F2DD063BB364BBB
:105650001B68C3F3C1033548D840FEF7AFBD002037
:10566000FEF7ACBD04A8FEF763FB0498FEF7A6BDE9
:1056700001A8FEF769FC0398FEF7A0BD2A4BD3F8FA
:10568000F00010F002003EF499AD4FF40040FEF738
:1056900095BD254BD3F8F00010F000603EF48EADC0
:1056A0004FF4FA40FEF78ABD1F4A126812F4007FD9
:1056B00003D0B3F1804F00F04F831B4A126812F4FD
:1056C000003F00F04C83B3F1004F00F04B8300200B
:1056D000FEF774BD144AD2F8E83003F44073126840
:1056E00012F4003F02D0002B00F03F83B3F5807F1F
:1056F00005D0B3F5007F08D00020FEF75FBD07A8F6
:10570000FEF70AFA0898FEF759BD04A8FEF710FB49
:105710000598FEF753BD0648FEF750BD07A8FEF7F3
:10572000FBF90898FEF74ABD000C02440090D00334
:105730000080BB0004A8FEF7FBFA0498FEF73EBD0C
:1057400001A8FEF701FC0198FEF738BDA74AD2F880
:10575000E83003F04043126812F0020F08D03BB962
:10576000A24B1B68C3F3C103A148D840FEF726BD76
:105770009E4A126812F4007F03D0B3F1804F00F00C
:10578000FA829A4A126812F4003F00F0F782B3F1ED
:10579000004F00F0F6820020FEF710BD934BD3F8C7
:1057A000E03003F03803202B00F2EE82DFE813F044
:1057B0002400EC02EC02EC02EC02EC02EC02EC0243
:1057C0002A00EC02EC02EC02EC02EC02EC02EC022D
:1057D0003000EC02EC02EC02EC02EC02EC02EC0217
:1057E0002100EC02EC02EC02EC02EC02EC02EC0216
:1057F00036008048FEF7E2BC07A8FEF78DF908984E
:10580000FEF7DCBC04A8FEF793FA0498FEF7D6BCBA
:1058100001A8FEF799FB0198FEF7D0BC734AD2F8B5
:10582000E83003F04043126812F0020F08D03BB991
:105830006E4B1B68C3F3C1036D48D840FEF7BEBC76
:105840006A4A126812F4007F03D0B3F1804F00F06F
:105850009E82664A126812F4003F00F09B82B3F108
:10586000004F00F09A820020FEF7A8BC5F4BD3F8EF
:10587000E03003F4E073802B2DD00BD82BB3402BFA
:1058800005D104A8FEF754FA0498FEF797BC00204F
:10589000FEF794BCC02B00F08382B3F5807F11D15A
:1058A000524AD2F8E83003F04043126812F0020F77
:1058B00017D0B3B94D4B1B68C3F3C1034C48D84054
:1058C000FEF77CBC0020FEF779BC07A8FEF724F9A0
:1058D0000898FEF773BC01A8FEF736FB0198FEF7A7
:1058E0006DBC424A126812F4007F03D0B3F1804FBE
:1058F00000F059823D4A126812F4003F00F05682CF
:10590000B3F1004F00F055820020FEF757BCFCF7C2
:10591000AFFFFEF753BC04A8FEF70AFA0598FEF79E
:105920004DBC01A8FEF710FB0298FEF747BC2F4BB9
:105930001B68C3F3C1032E48D840FEF73FBC2B4B76
:10594000D3F8E03013F4E0432DD0284A126812F067
:10595000006F02D0B3F5805F29D0244A126812F09C
:10596000005F02D0B3F5005F27D0204A126812F022
:10597000020F02D0B3F5405F25D01C4A126812F422
:10598000007F03D0B3F5804F00F01F82174A1268E2
:1059900012F4003F00F01C82B3F5A04F00F01B8210
:1059A0000020FEF70BBCFCF775FFFEF707BC04A850
:1059B000FEF7BEF90598FEF701BC01A8FEF7C4FA90
:1059C0000298FEF7FBBB094B1B68C3F3C1030848F1
:1059D000D840FEF7F3BBFCF74BFFFEF7EFBB04A884
:1059E000FEF7A6F90598FEF7E9BB00BF000C0244DC
:1059F0000090D0030080BB0001A8FEF7A5FA029832
:105A0000FEF7DCBBC64B1B68C3F3C103C548D840D7
:105A1000FEF7D4BBC24BD3F8E43003F00303032BEF
:105A200000F2E581DFE803F002060C12FCF7B2FB9E
:105A3000FEF7C4BB07A8FEF76FF80898FEF7BEBBD9
:105A400004A8FEF775F90698FEF7B8BBB44AD2F879
:105A5000E83003F04043126812F0020F08D03BB95F
:105A6000AF4B1B68C3F3C103AE48D840FEF7A6BBDB
:105A7000AB4A126812F4007F03D0B3F1804F00F0FC
:105A8000B981A74A126812F4003F00F0B681B3F161
:105A9000004F00F0B5810020FEF790BBA04AD2F87D
:105AA000E83003F03003126812F4005F02D0002BDC
:105AB00000F0B8819A4A126812F0007F01D0102BD2
:105AC00015D0974AD2F8F02012F0020F02D0202B06
:105AD00000F0AB81924AD2F8F02012F0006F00F093
